:020000040000FA
:10000000000083160313880103309F00831203133B
:10001000880141309F006920102015202C200C28D9
:100020001F151F1911281E080800B300B401B501DF
:10003000B60103146430B302B40A03181B28B307D3
:10004000B40303140A30B302B50A03182328B30714
:10005000B5033308B6000800F41080305920F414BA
:100060003030B407B507B607340859202E30592070
:10007000350859203608592020305920563059204B
:100080006F3059206C30592074305920733059200A
:100090000800F930F0000000F00B4B280800F100D8
:1000A0004920F10B50280800081549200811492063
:1000B0000800F500F0398800F4188814542049200D
:1000C000F50E7508F0398800F4188814542049207A
:1000D000080064304F20F030F400303088005420A5
:1000E00005304F2054204920542008125420283035
:1000F00059200830592001305920063059208030CD
:0801000059200C3059200800C1
:04010800003400348B
:02400E00313748
:00000001FF
