:020000040000FA
:020000000528D1
:040002000034003492
:08000800090083160313063002
:100010009F008316031303018700831203138701D4
:1000200083120313A0018312031331309000831253
:1000300003132008282083120313870064303E2016
:1000400083120313A00A0A3020020319A001172803
:1000500082073F3406345B344F3466346D347D346C
:1000600007347F346F34F50000000000000000000A
:10007000000000000000F50B34280800F600FA30FC
:0E0080003320332033203320F60B40280800B5
:02400E007A3FF7
:00000001FF
